:020000040800F2
:10000000B034002029020008E52E00086D29000800
:10001000E12E0008E103000825330008000000007D
:10002000000000000000000000000000ED2E0008AD
:100030003904000800000000E92E0008F12E000835
:10004000430200084302000843020008430200087C
:10005000430200084302000843020008430200086C
:10006000430200084302000843020008430200085C
:10007000430200084302000843020008430200084C
:100080004302000843020008D503000843020008A9
:10009000E5030008F10300084302000843020008DA
:1000A000430200084302000843020008430200081C
:1000B000430200084302000843020008430200080C
:1000C00043020008430200084302000843020008FC
:1000D000430200080D3300084302000819330008EA
:1000E00043020008430200084302000843020008DC
:1000F00043020008430200084302000843020008CC
:1001000043020008430200084302000843020008BB
:100110004302000843020008BD2F0008C92F000851
:1001200015040008430200082104000843020008E7
:10013000430200084302000843020008430200088B
:10014000FD030008090400084302000843020008F8
:1001500043020008430200082D040008430200087F
:10016000430200084302000843020008430200085B
:100170004302000843020008430200080000000098
:10018000430200084302000800F002F800F03CF8C7
:100190000AA090E8000C82448344AAF10107DA45E2
:1001A00001D100F031F8AFF2090EBAE80F0013F0F8
:1001B000010F18BFFB1A43F0010318470C3200006F
:1001C0002C320000103A24BF78C878C1FAD8520700
:1001D00024BF30C830C144BF04680C6070470000C1
:1001E0000023002400250026103A28BF78C1FBD840
:1001F000520728BF30C148BF0B6070471FB503F0DE
:10020000C6F81FBD10B510BD00F0A9F81146FFF7E4
:10021000F5FF03F089F800F0C7F803B4FFF7F2FF29
:1002200003BC00F0CFF800000948804709480047A8
:10023000FEE7FEE7FEE7FEE7FEE7FEE7FEE7FEE796
:10024000FEE7FEE704480549054A064B70470000F3
:10025000A92F000889010008B0040020B034002054
:10026000B0140020B014002053EA020C00F06980A2
:100270002DE9F04B4FF00006002B1FBFB3FA83F5BA
:1002800003FA05F424FA05F65E4012BF1643B2FAEB
:1002900082F502FA05F4C5F120051EBF22FA05FC1D
:1002A00044EA0C04203556EA044C4FEA144418BFC3
:1002B000641C4FF000084FF00009904271EB030CF2
:1002C00039D3002919BFB1FA81F701FA07F6B0FA5C
:1002D00080F700FA07F6C7F120071EBF20FA07FCD7
:1002E00046EA0C062037B6FBF4FCA7EB0507103FE7
:1002F00007F01F0BCBF120062CFA06F60CFA0BFBCD
:1003000044BFB3460026202FA4BF5E464FF0000B2B
:100310005BEA060C08BF4FF0010B19EB0B0948EB29
:100320000608ABFB027C06FB02CC0BFB03CCC01B1C
:1003300071EB0C01C1E70B46024641464846BDE859
:10034000F08B13B5084318BF4FF0FF300146AFF3F1
:100350000080BDE81C407047704770477047754685
:1003600000F02CF8AE4605006946534620F0070021
:10037000854618B020B5FFF765FFBDE820404FF077
:1003800000064FF000074FF000084FF0000BAC469E
:10039000ACE8C009ACE8C009ACE8C009ACE8C009E9
:1003A00021F007018D46704710B50446AFF3008079
:1003B0002046BDE81040FFF730BF000000487047FE
:1003C0001000002001491820ABBEFEE72600020005
:1003D0007047000040F2A000C2F2000000F0DEB85A
:1003E000FEE7000040F2E800C2F2000000F062BA4E
:1003F00040F2E800C2F2000000F05CBA40F21010D7
:10040000C2F2000000F056BA40F21010C2F2000032
:1004100000F050BA40F23810C2F2000000F000BD07
:1004200040F29810C2F2000000F0FABC40F2F8105E
:10043000C2F2000000F0F4BC70470000EFF310803F
:1004400072B600BFFEE700007047000070B581B0D3
:100450000022009290F83C20012A03D10221084694
:1004600001B070BD0E6801220A2E80F83C2009D32D
:10047000B2B25200D0F800E012FA86F21E3A0EF143
:100480000C0305E0D0F800E006EB46020EF1100385
:100490004FF0070C1D680CFA02F4A5431D608D682F
:1004A0001C6805FA02F222431A60496806290FD82F
:1004B00001EB81014A1F71461F2351F8345F9340BD
:1004C00025EA03030B60B3B203FA02F214E000BFA3
:1004D00001EB81030C29B2B204D8714651F8304FB8
:1004E000233B03E0714651F82C4F413B1F259D40B3
:1004F00024EA05059A400D600B6842F2043CC4F200
:10050000010C1A43ACF541739E450A603BD1122E93
:1005100006D1DCF8001041F48001CCF8001032E084
:1005200026F0010110292ED1DCF80010102E41F424
:100530000001CCF8001026D140F20801C2F20001FF
:1005400009684DF68362C4F21B32A1FB0212910CC2
:1005500001EB8101490000910099A1B10099013995
:100560000091009979B1009901390091009951B138
:10057000009901390091009929B100990139009140
:1005800000990029EAD1002180F83C10084601B00A
:1005900070BD0000704700007047000070B5044651
:1005A000006806684568B10717D515F0200114D01A
:1005B000216CC90603D4216C41F400712164816867
:1005C00011F0405F02D1217E002969D02046FFF75B
:1005D000E1FF20686FF012010160710714D515F07A
:1005E000800111D0216CC90603D4216C41F4005163
:1005F0002164816811F4401F22D02046FFF724FFB8
:1006000020686FF00C010160F10706D015F0400181
:100610001CBF01685FEAC17134D1B1060FD515F076
:10062000806108BF70BD616C6FF0200541F0020170
:10063000616405602046FFF7AFFF2068056070BD6C
:10064000816B11F4401F02D081684905D5D44168FF
:100650004905D2D4816811F0405FCED1217E0029B6
:10066000CBD1416821F080014160206C20F48050A2
:100670002064206CC005C0D4206C40F001002064D0
:10068000BBE700BF206C40F480302064204600F0BF
:10069000D1F820686FF001010160B106BFD4CEE748
:1006A000C16A11F4700F03D0816849053FF58EAF20
:1006B000416821F020014160206C20F480702064AA
:1006C000206CC0043FF582AF206C40F00100206434
:1006D0007CE70000002804BF0120704710B50446E5
:1006E000006C00283ED0206CC00645D4206C41F23E
:1006F00002118843023042F204312064C4F2010145
:10070000086820F4403008600A6894E809101A4329
:10071000D4F810E00A604168012321F4807141603F
:100720004168C0F6007341EA0E214160416821F042
:1007300040714160416841EA0C014160816821F4E7
:1007400000618160E168826811438160A16A82680A
:10075000994222F070628260826813D122F0405187
:1007600019E000BF204600F067F80020606484F8BC
:100770003C00206CC006B9D50120002184F83C1053
:1007800010BD00BF11438160816821F0405181603C
:10079000E16A826811438160816821F00201816011
:1007A0008168227E94F8203041EA420181604168EC
:1007B00083B141F40061416041684EF2000221F4CE
:1007C00060414160616ACFF6FF72436802EB4131DC
:1007D000194301E021F400614160C16A40F2000C5C
:1007E00021F47001C162E2696169CFF6F07CC36AED
:1007F0000CEB02521A43C262826822F400728260D9
:1008000094F83020836843EA42228260826822F4AE
:1008100080628260826842EA812181600020606497
:10082000216C012262F301012164002184F83C1053
:1008300010BD00007047000080B586B042F2002174
:100840000068C4F20101002288420592049201D09E
:1008500006B080BD43F630000092C4F20200436946
:1008600043F480634361436903F480630093009B16
:100870000092036843F020030360006800F020004A
:10088000009000984FF4806001900320CDE90202AF
:1008900001F5724001A900F055FC12200021002250
:1008A00000F0E0FD122000F0C9FD06B080BD0000A0
:1008B000704700002DE9F04F81B00446006846699A
:1008C000D0F804908768D0F80CB0D0F810A0D0F819
:1008D0001880F10704D1002530071DD424E000BFA3
:1008E000F90710D00121BA07816009D4780700F117
:1008F000AF80380700F1B680204600F029FA02E008
:10090000204600F027FA0025F80500F18780F8035B
:1009100000F1B180300707D51BF0100004D020682B
:1009200045F400751021C160700708D51BF0080060
:1009300005D020680821C160204600F0FFF9B0070B
:1009400006D52068C068800702D0204600F0F8F97C
:10095000700607D51AF0100004D0206845F48065B1
:1009600010210161B00608D51AF0080005D02068F2
:1009700008210161204600F0E5F9F00606D520685F
:100980000069800702D0204600F0DEF9B00308D5E8
:1009900019F0100005D0206810214160204600F0B9
:1009A000D5F9F00308D519F0080005D02068082112
:1009B0004160204600F0D8F9300440F19B805FEAA6
:1009C000497040F1948006F4807008EA10202843B2
:1009D0005FEA8871014648BF41F00201B20558BF85
:1009E00001465FEA48700D4648BF45F004057005B2
:1009F00058BF0D46300540F17A8018F0700000F0C5
:100A000076801038000905286CD8DFE800F003591B
:100A10005D61656945F0080564E000BF20684FF43A
:100A20008071BA0581600BD4780515D438051DD4C2
:100A3000204600F091F9F8037FF56CAF1BE000BF92
:100A4000204600F08BF9F8037FF564AF13E000BF98
:100A50004FF4006558E700BF05F50055F8037FF532
:100A600059AF08E04FF480554EE700BF05F58045CB
:100A7000F8037FF54FAF20684FF48031BA038160EF
:100A80000AD4780310D4380314D4204600F068F94F
:100A900030073FF541AF47E7204600F063F93007E4
:100AA0003FF53AAF40E700BF05F5004530073FF599
:100AB00033AF39E705F5803530073FF52DAF33E724
:100AC00045F010050EE000BF45F020050AE000BF2C
:100AD00045F0400506E000BF45F0800502E000BF9C
:100AE00045F480752068816921F07001816120687A
:100AF0000421416055B1606A40EA05012046616207
:100B000001B0BDE8F04FFFF7D3BE00BF01B0BDE8B4
:100B1000F08F0000B0B5C8B1044690F8200010B9BD
:100B2000204600F071F82068016841F00101016081
:100B300000F0E2FB054600BF20684168C90707D105
:100B400000F0DAFB401B0B28F6D312E00120B0BD09
:100B5000016821F00201016000F0CEFB054600BFF4
:100B60002068416889070DD500F0C6FB401B0B28A3
:100B7000F6D3606A052140F400306062012084F8F9
:100B80002010B0BD217E0268012922F0800208BF3A
:100B900080320260617E0268012922F0400208BFB3
:100BA00040320260A17E0268012922F0200208BFC3
:100BB00020320260E17E0268012922F0100218BF93
:100BC00010320260217F0268012922F0080208BF6A
:100BD00008320260617F0268012922F0040208BF26
:100BE00004320260D4E901C2D4E9033561691A43D1
:100BF0002A431143ACF101021143C16100200121DC
:100C0000606284F82010B0BDB0B586B0006846F6CA
:100C10000002C4F2000200219042CDE90411CDE9A6
:100C20000211019136D046F20041C4F2000188421F
:100C300040F0828040F29C01C2F200010A6843F653
:100C40004000C4F20200531C0B6052B90021009115
:100C5000016841F000710160016801F000710091CC
:100C600000990021009150F8101C152441F0080152
:100C700040F8101C50F8100C142500F008000090EB
:100C8000009840F20040C4F2020000F50060032129
:100C900036E000BF43F64000C4F202000091016854
:100CA00041F080610160016801F08061009100996C
:100CB00040F29C01C2F200010A68531C0B6052B959
:100CC00000210091016841F000710160016801F0AC
:100CD0000071009100990021009150F8101C4124EE
:100CE00041F0020140F8101C50F8100C402500F0B3
:100CF00002000090009840F200406021C4F202001F
:100D00000191022102910021039103210491092103
:100D1000059101A900F016FA28460021002200F0F2
:100D2000A1FB284600F08AFB20460021002200F0AB
:100D300099FB204600F082FB06B0B0BD7047000072
:100D400070470000704700007047000070470000C7
:100D500070470000704700007047000070470000B7
:100D600070470000704700007047000070B5866D46
:100D7000044600F0C1FA94F83510022928D105463E
:100D80002068216C026822F016020260426922F09B
:100D90008002426109B9A16C19B1016821F0080112
:100DA0000160016821F00101016000BF2068006856
:100DB000C00715D000F0A0FA401B0628F6D320206B
:100DC0006065032084F83500002184F8341070BD7C
:100DD000802060650120002184F8341070BD00BFC0
:100DE000E06D3F2101FA00F0B060012084F8350089
:100DF0000020002184F8341070BD000090F83510F8
:100E0000022909D1052180F835100068016821F018
:100E10000101016000207047802141650120704779
:100E2000F0B581B004460020009040F20800C2F204
:100E300000000268D4E9166048F2B513376808214B
:100E4000C1F64E3381403942A2FB03250CD0226803
:100E500013685B0708D5136823F004031360B160BF
:100E6000616D41F00101616501218140394208D085
:100E700022685269120604D5B160616D41F0020129
:100E8000616504218140394208D0226812689207C6
:100E900004D5B160616D41F00401616510218140AC
:100EA000394217D020680268120713D5B160026872
:100EB0000168520308D4C90508D4016821F008016B
:100EC0000160216C21B905E008033FD4216C09B110
:100ED00020468847E16D202000FA01F23A4241D0D5
:100EE00020680368DB063DD5B26094F835300268AF
:100EF000052B1BD122F016020260426922F080020B
:100F00004261226C0AB9A26C1AB1026822F008028E
:100F100002603F208840B060012084F83500216DD8
:100F20000020002984F8340052D157E001685203B0
:100F300010D4C90512D4016821F01001016001200C
:100F400084F83500002084F8340007E0A16C002903
:100F5000BED1BFE7080301D4616C00E0E16B09B1C9
:100F600020468847606DC8B3606DC0072ED005204D
:100F700084F835002068A90A026822F001020260A4
:100F8000009A01328A4200921AD80268D20717D01A
:100F9000009A01328A42009212D80268D2070FD01A
:100FA000009A01328A4200920AD80268D20707D01A
:100FB000009A01328A42009202D80268D207DFD139
:100FC000012084F83500002084F83400E16C29B158
:100FD000204601B0BDE8F040084700BF01B0F0BDB9
:100FE0002DE9F041044600F087F9ECB105460220F6
:100FF00084F835000020216884F83400086820F067
:101000000100086021680868C00711D000F074F979
:10101000401B0528F6D9032520230320636584F8A7
:101020003550BDE8F08100BF0120BDE8F08100BF70
:10103000086848F23F02CFF21002D4E9013500EA15
:10104000020C04F10C0898E8C10143EA0C032B439D
:101050001843D4E9072E304338431043626A40EA0C
:101060000E00042A40EA08031CD1206BD4E90A2EA2
:1010700040EA0E00184308604869BEF1000F20F0F6
:10108000030040EA020040F0040C11D0B8F5005F04
:1010900036D0B8F1000F45D1022A46D0012A3BD004
:1010A00032B942E00B60486920F0070040EA020CC8
:1010B00001F0F8004AF6AB221038CAF6AA22A0FBCB
:1010C00002231A0943F2C033C0F600039A5C40F2CF
:1010D000FF335F284FF03F00C1F814C021EA03013D
:1010E00000FA02F088BF0431C4E9161288600023B8
:1010F00001250020636584F83550BDE8F08100BF0C
:10110000032AD5D8012540230120DFE802F0030E91
:10111000030500BF82E700BFAEF1C070B0FA80F0F7
:10112000400904E0032A04D3C2D1CEF300600028B2
:10113000BED0012540230120636584F83550BDE809
:10114000F08100002DE9F04F82B000F13E4241F6FF
:10115000004502F1FF77C4F20205082243F6004E73
:101160004FEAB726A84208BF0722C4F2010E072E95
:1011700038BF4FEAB7220125002600274FF00008AC
:10118000009208E008F101080437B8F1100F06F1E9
:10119000020600F0A7800C6805FA08F914EA090FA6
:1011A000F0D0D1F804B003220BF0030CACF1010431
:1011B000B240012C6FEA020A10D88268CC6802EAB9
:1011C0000A02B440224382604268CBF3001422EA50
:1011D000090204FA08F42243426005E0BCF1030F5F
:1011E00002D14FF0030C20E0C2688C6802EA0A02C8
:1011F000B4402243BCF1020FC26016D16FF003026B
:1012000002EA58020244D2F820C007F01C050F235E
:101210000C69AB402CEA030304FA05F52B43136277
:10122000D1F804B001250BF0030C02680CFA06F3A8
:1012300002EA0A021A431BF4403F0260A2D00022D5
:1012400043F644030192C4F202031A684FF6084CB5
:1012500042F480421A601A68CFF6FF7C02F48042A2
:101260000192019A28F00302724452F80C3007F000
:101270000C050F24AC40A343009C04FA05F52B4356
:1012800042F80C30DEF808204B6842EA090543F6C4
:101290000C4CDC0258BF22EA0905CEF80850C4F213
:1012A000010CDCF800209C0242EA090558BF22EA42
:1012B0000905CCF80050DEF804209C0342EA090539
:1012C00058BF22EA0905CEF80450DEF80020DB03FF
:1012D00042EA090558BF22EA0905CEF80050012567
:1012E00050E700BF02B0BDE8F08F0000002A08BF41
:1012F000090481617047000040F2AC40C2F2000076
:1013000000687047B0B538B304460068D4E90112EC
:101310004CF6CC43036045F2555303604160826054
:10132000FFF7EAFF2168CA6892070FD0054602E07E
:10133000C86880070AD0FFF7DFFF401B216832280A
:10134000F6D3C8688007F3D00320B0BD4AF6AA20C0
:1013500008600020B0BD00BF0120B0BD01684AF6A2
:10136000AA2200200A60704740F2000040F2AC411F
:10137000C2F20000C2F2000100780A68104408605E
:101380007047000080B543F60040C4F202000168D7
:1013900041F400710160016841F4806101600168FD
:1013A00041F480710160032000F088F80F2000F004
:1013B00005F800F027F8002080BD000070B540F26D
:1013C0000006C2F2000640F208013278C2F20001C3
:1013D0004FF47A730968B3FBF2F20446B1FBF2F101
:1013E000084600F00FFC0F2C4FF0010508D838B963
:1013F0004FF0FF3021460022002500F033F87460E2
:10140000284670BD82B0002043F640010190C4F22E
:1014100002014A6842F480424A604A6802F480420B
:101420000192019A0090086840F0805008600868B6
:1014300000F080500090009802B07047002848BF2C
:101440007047C1B200F01F00012202FA00F04EF214
:101450000012CEF2000242EAD10121F0030108603D
:101460007047000010B54EF60C5CCEF2000CDCF8B4
:101470000030C3F3022E8EF00704042C28BF04248E
:10148000BEF103034FF0FF3E0EFA04F438BF002311
:10149000A14399400EFA03F39A43114300F00F025F
:1014A00000F160430901043A03F5644362440028F3
:1014B00048BF02F10C03197010BD00004EF60C512C
:1014C000CEF200010A684FF6FF031A4060F30A22C9
:1014D00042F0806040F0FD70086070472DE9F041F7
:1014E000002800F08B8043F60808C4F20208044686
:1014F000D8F8F8030D4600F00700884207D288F8B4
:10150000F853D8F8F80300F00700A84276D1206815
:10151000810717D5410705D5D8F8001041F4E051EF
:10152000C8F80010010705D5D8F8001041F4604153
:10153000C8F80010D8F80010A26821F0F00111439B
:10154000C8F80010C0073FD1D8F8F80300F0070032
:10155000A84207D988F8F853D8F8F80300F0070034
:10156000A8424BD12068410707D5D8F80010E2689F
:1015700021F4E0511143C8F80010000708D5D8F84D
:101580000000216920F4604040EAC100C8F8000072
:1015900000F07CF8D8F8001043F2A832C1F3031130
:1015A000C0F60002515C40F2080220FA01F140F25C
:1015B0000400C2F200000068C2F200021160FFF7EE
:1015C000FDFE0020BDE8F0816068811E022907D27F
:1015D00058F8081C89015CBF0120BDE8F08111E0CA
:1015E000012807D158F8081C89035CBF0120BDE819
:1015F000F08107E058F8081C890703D40120BDE8F2
:10160000F08100BFD8F8001021F003010843C8F8AA
:101610000000FFF771FE064641F28837D8F8000057
:10162000616800F00C00B0EB810F8DD0FFF764FE15
:10163000801BB842F2D90320BDE8F08140F20800D7
:1016400043F60801C2F20000C4F202010068096812
:1016500043F2B832C1F38221C0F60002515CC840A7
:101660007047000040F2080043F60801C2F2000093
:10167000C4F202010068096843F2B832C1F3423192
:10168000C0F60002515CC8407047000010B543F638
:101690000404C4F20204606800F00C0008280BD0B7
:1016A000042819BF42F20040C0F2F40041F60030B5
:1016B000C0F2B70010BD00BF20682168236849024E
:1016C00041F60031C0F2B70100F03F02C3F38810C9
:1016D0005CBF42F20041C0F2F401A1FB0001002313
:1016E000FEF7C2FD21680222C1F3014102EB410174
:1016F000B0FBF1F010BD00002DE9F04182B00028F0
:1017000068D00446007843F60006C007C4F202061B
:101710000BD0B06800F00C00042840F09F803068C7
:10172000800302D56068002854D0207880071AD53D
:10173000B06810F00C0F09D0B06800F00C00082859
:1017400040F0A6807068400200F1A28030688007F7
:1017500002D5E06801283DD13068216920F0F80009
:1017600040EAC10030602078000737D42078400775
:101770004CD4A56955B3B06800F00C00082840F0BF
:10178000BB80012D26D07068E16900F480028A4296
:1017900020D1216A00F03F028A421BD147F6C07176
:1017A000626A0140B1EB821F14D1A16A4FF6FF7348
:1017B000C903994300F44032A1F580318A4209D12E
:1017C000E16A00F07060B0EB016F03D1002002B05D
:1017D000BDE8F081012002B0BDE8F0816069002819
:1017E00040F20000C4F2472076D00121C0F8801EEC
:1017F000FFF782FD054600BF706F8007B6D4FFF784
:101800007BFD401B0228F7D9DDE000BF306C10F0F3
:1018100080580AD100200190306C40F08050306434
:10182000306C00F080500190019847F20007C4F23C
:1018300000073868C00541D4386840F480703860CB
:10184000FFF75AFD054600BF3868C00536D4FFF7DC
:1018500053FD401B0228F7D9B5E000BFB06800F087
:101860000C00082803D1706840023FF558AF60684B
:10187000B0F5803F07D0B0F5A02F40F08D803068E4
:1018800040F480203060306840F4803030608DE07B
:10189000E068002852D00020C4F2472001210160F6
:1018A000FFF72AFD054600BF306880073FF554AFBB
:1018B000FFF722FD401B0228F6D984E0A06801282A
:1018C00005D005284ED1306F40F004003067306FEE
:1018D00040F0010030674FE00021C0F8801EFFF7A4
:1018E0000BFD0546706F80077FF540AFFFF704FDE5
:1018F000401B0228F6D966E00027C4F247270020E3
:101900003866FFF7F9FC022D05460BD130688001DF
:101910005ED5FFF7F1FC401B02284FF00300F5D91C
:1019200055E700BF306880017FF550AFFFF7E4FC5A
:10193000401B02284FF00300F4D948E70020C4F20E
:10194000472000210160FFF7D7FC0546306880077B
:101950007FF509AFFFF7D0FC401B02284FF00300D2
:10196000F4D934E7316F002821F001013167316F7C
:1019700021F0040131674DD0FFF7BEFC054641F26E
:10198000883700BF306F800756D4FFF7B5FC401B87
:10199000B842F7D917E000BF3168002821F4803140
:1019A0003160316821F4802131604FD0FFF7A4FC11
:1019B000054600BF306880033FF5B7AEFFF79CFCDB
:1019C000401B6428F6D9032002B0BDE8F08100BFB7
:1019D00004F11C052FCD084340EA8210D9034FF6CD
:1019E000FF729143A1F5803140EA056008437060C1
:1019F00001203866FFF780FC044600BF3068800194
:101A00003FF5E4AEFFF778FC001B02284FF003001F
:101A1000F4D9DCE6FFF770FC054641F2883700BFD9
:101A2000306F800708D5FFF767FC401BB8424FF0C6
:101A30000300F5D9CBE600BFB8F1000F7FF499AEF3
:101A4000306C20F08050306493E600BFFFF754FC08
:101A5000054600BF306880037FF567AEFFF74CFC9A
:101A6000401B64284FF00300F4D9B0E670B538B1DC
:101A70000446406A30B10020206104F1140007E000
:101A8000012070BD6068B0F5827F03D004F11C00B6
:101A9000002101600026A66294F8510020B920467A
:101AA00084F8506000F03CF8022084F8510094E87B
:101AB0000F0001F48271056802F4044225F040052C
:101AC0000560114403F400622369114403F002022B
:101AD0006369114403F00102A369E569114403F449
:101AE0000072114405F03802256A114405F08002A5
:101AF000A56A114305F4005211430160626A042192
:101B000001EA134102F0100211444160C16921F45D
:101B10000061C1610120666584F85100304670BDE6
:101B20002DE9F04786B00446006843F20007C4F28E
:101B30000107B84202D006B0BDE8F087002643F6A0
:101B400030000196C4F20200416901AD41F48051B8
:101B5000416141694FF0020801F4805101910199FE
:101B6000019601684FF0030941F00201016001682C
:101B70004FF0050A01F002010191019901960168F7
:101B800041F0010101600068294600F00100019068
:101B900001981820019007F55440CDE90286CDF850
:101BA0001090CDF814A0FFF7CDFA8020CDE9010800
:101BB00003A880E8400607F550402946FFF7C2FA1F
:101BC00040F2381546F21040C2F20005C4F202009D
:101BD0004FF0C0614FF4806285E843002846C5E9B4
:101BE0000362C5E90566C5E907666E62FFF7F8F9A5
:101BF000002818BFFEF722FCE564AC6306B0BDE820
:101C0000F0870000411E0020B0EB116F1CBF0120C7
:101C100070474EF21002CEF2000251604EF6235190
:101C2000CEF20001F0230B70072190601160704725
:101C3000704700007047000010B590F83C20012A62
:101C40004FF0020251D080F83D200268D2F804E043
:101C5000D2F808C00C682EF07003234341F2FF74E1
:101C6000C4F20004A24253600EDC40F2FF73C4F2DF
:101C700000039A4216DCB2F1804F2BD040F20043B1
:101C8000C4F2000324E000BF40F2FF33C4F20103BA
:101C90009A4213DC41F60003C4F200039A4219D0C1
:101CA000002313E040F60003C4F200039A4211D06F
:101CB00040F60043C4F200030AE000BF44F2000310
:101CC000C4F201039A4205D040F20043C4F201037A
:101CD0009A4204D149682CF0800319439160012194
:101CE000002280F83D1080F83C20104610BD000016
:101CF000002804BF0120704710B5044690F83D004D
:101D000028B9002084F83C00204600F01FF802208B
:101D100084F83D002068211D01F05CF9012084F861
:101D2000460084F83E0084F83F0084F8400084F8C0
:101D3000410084F8420084F8430084F8440084F8A9
:101D4000450084F83D00002010BD000010B582B0B1
:101D5000006841F20041C4F20001884216D041F20D
:101D60000001C4F2000188422CD10020019043F60A
:101D70004000C4F202000168362441F01001016005
:101D8000006800F01000019001980FE00020009022
:101D900043F64000C4F202000168372441F02001FC
:101DA0000160006800F020000090009820460021AB
:101DB0000022FFF757FB204602B0BDE81040FFF7B6
:101DC0003DBB00BF02B010BD7047000010B50168F8
:101DD00004460869800744BFC8685FEA807039D448
:101DE0000869400744BFC8685FEA40703ED408698C
:101DF000000744BFC8685FEA007045D40869C006A0
:101E000044BFC8685FEAC0604AD40869C0071CBF05
:101E1000C8685FEAC07051D10869000644BFC8684D
:101E20005FEA006052D40869400644BFC8685FEAB0
:101E3000406053D40869800646BFC8685FEA806086
:101E400010BD6FF0200220460A61BDE81040FFF788
:101E5000F1BE00BF6FF002000861012020778869A1
:101E6000800743D02046FFF7AFFF45E06FF0040046
:101E7000086102202077886910F4407F40D0204616
:101E8000FFF7A2FF42E000BF6FF0080008610420E6
:101E90002077C86980073DD02046FFF795FF3FE0D7
:101EA0006FF01000086108202077C86910F4407FA7
:101EB0003AD02046FFF788FF3CE000BF6FF00100FA
:101EC0000861204600F0F8F82168A5E76FF080006F
:101ED00008612046FFF7ACFE2168A4E76FF04000E0
:101EE0000861204600F0EAF82168A3E7204600F0E8
:101EF00025F8204600F0DEF82168002020776FE703
:101F0000204600F01BF8204600F0D4F8216800209D
:101F100020776CE7204600F011F8204600F0CAF860
:101F200021680020207769E7204600F007F8204666
:101F300000F0C0F821680020207766E770470000B5
:101F4000002804BF01207047B0B5044690F83D005A
:101F50000D4628B9002084F83C00204600F01EF809
:101F6000022084F83D002068211D01F033F820682C
:101F7000016821F008010160016829430160012026
:101F800084F8460084F83E0084F83F0084F842005C
:101F900084F8430084F83D000020B0BD80B586B0D1
:101FA000006840F60042C4F2000200219042CDE9F0
:101FB0000411CDE9021101912CD040F60001C4F2C8
:101FC0000001884248D040F20041C4F2000188423A
:101FD0006DD1002043F630010090C4F202010A697D
:101FE00042F002020A610A6902F002020092009ABB
:101FF0000090086840F004000860086800F00400E1
:10200000009000984FF48070019040F60000C4F2F8
:10201000020043E043F630000091C4F2020002697E
:1020200042F008020261026902F008020092009A7E
:102030000091016841F080010160006800F08000BB
:10204000009000984FF4E050019040F60000C4F278
:10205000020000F5A05021E0002043F6300100907E
:10206000C4F202010A6942F004020A610A6902F03C
:1020700004020092009A0090086840F0080008608E
:10208000086800F00800009000984FF4804001902C
:1020900040F60000C4F2020000F5806002210291C7
:1020A0000022059101A9CDE90322FFF74BF806B004
:1020B00080BD0000704700007047000070470000BE
:1020C0007047000070470000B0B582B00446006859
:1020D0000168C368426901F02F05202D03F0200537
:1020E00006D12DB1204602B0BDE8B04001F016B8CF
:1020F0005FEA017C1EBF02F0010E03F4907212EB46
:102100000E0253D1226B012A05D111F0100218BF23
:1021100013F0100236D10A0622D513F080021FD028
:1021200094F83D1021293FD1A168B1F5805F03D11A
:102130002169002900F07282216A4A1C2262097812
:102140004160E18C01390A04E1842DD1C16821F09C
:102150008001C160C16841F04001C16002B0B0BD02
:10216000490621D513F040011ED0C16821F040017D
:10217000C1602021204684F83D1002B0BDE8B04087
:1021800000F0F2BB002101910168019141680191C9
:1021900001994069400613D4A08DE18DE28D002A9B
:1021A00018BF884240F0BE8102B0B0BDCA0718BF58
:1021B00013F4807240F0BA804A0700F1BD80C2E09B
:1021C000A16B0868426893B2002BEDD0A08D8342CA
:1021D000EAD2E285C969B1F5807F00F09D80206870
:1021E00050E8030F216820F4807041E80302DAB15F
:1021F000206850E8030F216820F4807041E8030252
:1022000092B1206850E8030F216820F4807041E803
:1022100003024AB1206850E8030F216820F480705F
:1022200041E80302002ADAD1206850E8050F21684E
:1022300020F0010041E80502DAB1206850E8050FFE
:10224000216820F0010041E8050292B1206850E8C1
:10225000050F216820F0010041E805024AB120681D
:1022600050E8050F216820F0010041E80502002A2E
:10227000DAD1206850E8050F216820F0400041E8DD
:102280000502DAB1206850E8050F216820F040000F
:1022900041E8050292B1206850E8050F216820F05E
:1022A000400041E805024AB1206850E8050F216866
:1022B00020F0400041E80502002ADAD1202084F80D
:1022C0003E0000202063206850E8030F216820F0C2
:1022D000100041E80302DAB1206850E8030F2168DA
:1022E00020F0100041E8030292B1206850E8030F8B
:1022F000216820F0100041E803024AB1206850E84C
:10230000030F216820F0100041E80302002ADAD10F
:10231000A06BFEF72BFDA08DE18D401A81B2204607
:1023200002B0BDE8B040FFF7CBBE00BF226C42F068
:10233000010222644A0706D5BEF1000F03D0226CC9
:1023400042F0020222648A0706D5BEF1000F03D0D4
:10235000226C42F004022264BCF1000F09D545EA68
:102360000E02B2FA82F2520903D1226C42F0080244
:102370002264226C002A3FF417AF11F0200118BF2D
:10238000002D03D0204600F0C9FE20684069216C72
:1023900000F0400001F00801401800F0B58000BFD7
:1023A000206850E8030F216820F4907041E8030290
:1023B000BAB3206850E8030F216820F4907041E818
:1023C000030272B3206850E8030F216820F4907074
:1023D00041E803022AB3206850E8030F216820F483
:1023E000907041E80302002ADAD11AE0206850E830
:1023F000050F216820F0010041E80502DAB12068EC
:1024000050E8050F216820F0010041E8050292B173
:10241000206850E8050F216820F0010041E805021E
:102420004AB1206850E8050F216820F0010041E81A
:102430000502002ADAD1206B012824D1206850E857
:10244000030F216820F0100041E80302DAB1206890
:1024500050E8030F216820F0100041E8030292B118
:10246000206850E8030F216820F0100041E80302C3
:102470004AB1206850E8030F216820F0100041E8BD
:102480000302002ADAD1202084F83E0000202063D5
:102490002068406940063FD5206850E8050F216854
:1024A00020F0400041E80502DAB1206850E8050F4D
:1024B000216820F0400041E8050292B1206850E810
:1024C000050F216820F0400041E805024AB120686C
:1024D00050E8050F216820F0400041E80502002A7D
:1024E000DAD1A06BC0B143F21111C0F60001016551
:1024F000FEF784FC00283FF457AEA06B016D02B0DC
:10250000BDE8B040084700BF2046FFF7DBFD0020D4
:10251000206402B0B0BD00BF204602B0BDE8B040AC
:10252000FFF7D0BD401A216851E8031F226821F44B
:10253000907142E80313DBB1216851E8031F226860
:1025400021F4907142E8031393B1216851E8031F0D
:10255000226821F4907142E803134BB1216851E8DD
:10256000031F226821F4907142E80313002BDAD193
:10257000216851E8051F226821F0010142E8051396
:10258000DBB1216851E8051F226821F0010142E812
:10259000051393B1216851E8051F226821F001015C
:1025A00042E805134BB1216851E8051F226821F06C
:1025B000010142E80513002BDAD1202184F83E10F6
:1025C00000212163216851E8031F226821F01001D6
:1025D00042E80313002B3FF4A1AE216851E8031F2A
:1025E000226821F0100142E80313002B3FF496AE5D
:1025F000216851E8031F226821F0100142E803130B
:10260000002B3FF48BAE216851E8031F226821F0B4
:10261000100142E80313002BD4D17FE6216A31F880
:10262000022B6FF35F22426021628AE5002804BF1B
:102630000120704710B5044690F83D0028B90020ED
:1026400084F83C00204600F021F8242084F83D0066
:102650002068C16821F40051C160204600F0DEFD11
:102660002068016921F490410161416921F02A014A
:102670004161C16841F40051C16000202021206403
:1026800084F83D1084F83E1010BD00002DE9F04F95
:1026900087B00446216844F60002C4F2000200201C
:1026A0009142CDE90500CDE90300029000F0888059
:1026B00041F20000C4F20100814240F0B4800027E2
:1026C00043F630000197C4F202004169002541F051
:1026D000100141614169C4F2020501F0100101914C
:1026E00001990197016802AE41F0020101600168A1
:1026F00046F2404801F002010191019901970168F9
:102700004FF0020941F00101016000684FF0030A37
:1027100000F0010001900198802002904FF0070B1B
:1027200005F580603146C4F20208CDE90397CDF883
:1027300014A0CDF818B0FEF705FD4FF40070CDE9F8
:10274000020904A880E8800C28463146FEF7FAFC0E
:1027500040F29815C2F200054FF000664FF4806910
:102760002846C5E90086C5E90277C5E90497C5E9A9
:102770000677C5E90877FEF733FC002818BFFDF798
:102780005DFEA563AC6340F2F81508F17800C2F273
:1027900000054021C5E9000605F1080080E8820235
:1027A0002846C5E90577C5E907776F62FEF718FC8B
:1027B000002818BFFDF742FE6563AC6325242AE0BC
:1027C00043F630010190C4F202010A6942F480220A
:1027D0000A610A6902F480220192019A01900A6852
:1027E00042F004020A60096801F0040101910199B4
:1027F0004FF4406102910221CDE9031003200590BE
:10280000072006900020C4F2020000F5006002A933
:10281000FEF798FC2724204600210022FEF722FE26
:102820002046FEF70BFE07B0BDE8F08F90F83E3073
:10283000202B0BD100294FF0010318BF002A01D132
:102840001846704790F83C30012B01D102207047A8
:1028500000230363816222218285C285036480F89C
:102860003E100269016880F83C301AB1C86840F433
:102870008070C8604869002340F001004861C86862
:1028800040F02000C86018467047000040F26841E0
:10289000C2F20001884218BF704710B540F27004C0
:1028A00040F26840C2F20004C2F200002146122247
:1028B000FFF7BCFF20786178A27861F30A20E37803
:1028C00000EE100AC80862F34A1001EE100A9800E0
:1028D000217940EA921061F38A2002EE100A6079B1
:1028E000490860F3CA1103EE101A9FED1D4AB8EEB5
:1028F000C00AB8EEC11AB8EEC22A9FED1A5AB8EE55
:10290000C33A30EE040A31EE041A32EE042A33EEF2
:10291000043A80EE050A81EE051A82EE052A83EE5E
:10292000053AC0F3011104EE101AB8EE444A8009CA
:1029300084ED094A04EE100AB8EE444A40F25820E9
:1029400084ED0A4AC2F2000084ED050A84ED061AFD
:1029500084ED072A84ED083ABDE81040FEF7FEBC7E
:10296000000080C40000254470470000FEE700001E
:1029700010B584B040F2A000C2F2000042F2002C78
:102980004FF080544FF000620021C4F2010C4FF46C
:102990008033C0E90A2401240391017680F82010D5
:1029A000C46180F83010C0E900C3C0E90211C0E979
:1029B0000414FDF78FFE002818BFFDF73FFD082027
:1029C000CDE900040220029040F2A000C2F2000013
:1029D0006946FDF73BFD002818BFFDF72FFD04B049
:1029E00010BD000080B540F2E80046F20041C2F29E
:1029F0000000C4F20001062200234FF4802C80E87E
:102A00000E004FF48071C0E9033C43610183C0F8BC
:102A10001A30FEF77FF8002808BF80BDBDE880406F
:102A2000FDF70CBD80B540F2101046F60001C2F271
:102A30000000C4F20001062200234FF4802C80E83D
:102A40000E004FF48071C0E9033C43610183C0F87C
:102A50001A30FEF75FF8002808BF80BDBDE880404F
:102A6000FDF7ECBC80B582B00020019043F6300049
:102A7000C4F202000168002241F480010160006894
:102A8000002100F48000019001983820FEF7EAFC54
:102A90003820FEF7D3FC3A2000210022FEF7E2FCAA
:102AA0003A20FEF7CBFC462000210022FEF7DAFC9C
:102AB000462002B0BDE88040FEF7C0BC2DE9F04FD3
:102AC00085B0002743F630000097C4F20200016889
:102AD000002541F0020101600168C4F2020501F025
:102AE00002010091009900970168002241F0400125
:102AF000016001684FF0100901F040010091009958
:102B00000097016841F001010160016801F00101D5
:102B1000009100990097016841F008010160016887
:102B200001F00801009100990097016841F004014B
:102B30000160016801F004010091009900970168AB
:102B400041F480710160016801F480710091009985
:102B50000097016841F080010160016801F0800187
:102B6000009100990097016841F02001016001681F
:102B700001F02001009100990097016841F01001D7
:102B800001600068102100F01000009000982846B5
:102B9000FEF7ACFB05F580684046012100220124C8
:102BA000FEF7A4FB4FF48440009008206E464FF0DF
:102BB000020A4FF0030B049005F5C0503146CDE9F1
:102BC00001A7CDF80CB0FEF7BDFAC020CDE9000A90
:102BD00005F500503146CDE90277CDF810B0FEF78B
:102BE000B1FA4020CDE9000A05F500603146CDE993
:102BF0000277CDF810B0FEF7A5FA28463146CDE9A8
:102C000000470297FEF79EFA28463146CDE9009428
:102C1000CDE90247FEF796FA4FF4D440CDE9000A19
:102C200005F580503146CDE902770494FEF78AFA23
:102C300040463146CDE90044CDE90247FEF782FA2D
:102C400005B0BDE8F08F000080B540F2582043F297
:102C50000001C2F20000C4F20001032240F2DC5382
:102C600080E80E00FEF74EFB002808BF80BDBDE8DF
:102C70008040FDF7E3BB000010B540F2642043F252
:102C80000001C2F20000C4F201014FF4827200237D
:102C90004FF0010C4FF4007E182480E80E000A214A
:102CA000C0E90333C0E905CEC461C0E90833C0E917
:102CB0000A31FEF7DBFE002808BF10BDBDE810405A
:102CC000FDF7BCBB80B582B02020009040F2BC2054
:102CD00040F200420021C2F20000C4F200024FF6AE
:102CE000FF730191C0E90021C0E902130161816114
:102CF0000821FFF725F9002818BFFDF79FFB40F2D8
:102D0000BC20C2F200006946FEF796FF002818BFFB
:102D1000FDF794FB02B080BD80B582B040F2043074
:102D200040F600020021C2F20000C4F200024FF699
:102D3000FF73CDE90011C0E90021C0E90213016170
:102D4000802181610821FFF7FBF8002818BFFDF7FB
:102D500075FB40F20430C2F200006946FEF76CFFDA
:102D6000002818BFFDF76AFB02B080BD80B582B0B5
:102D700040F24C3040F600420021C2F20000C4F2A2
:102D800000026323CDE90011C0E90021C0E902136C
:102D9000016181610821FFF7D3F8002818BFFDF712
:102DA0004DFB40F24C30C2F200006946FEF744FF92
:102DB000002818BFFDF742FB02B080BD80B582B08D
:102DC00040F2943041F200020021C2F20000C4F24D
:102DD0000002532340F2E73CCDE90011C0E9002393
:102DE000C0E9021C8161FEF783FF002818BFFDF7D0
:102DF00025FB40F29430C2F200006946FEF71CFF4A
:102E0000002818BFFDF71AFB02B080BD80B582B064
:102E100040F2DC3041F200420021C2F20000C4F274
:102E20000002532340F2E73CCDE90011C0E9002342
:102E3000C0E9021C8161FEF75BFF002818BFFDF7A7
:102E4000FDFA40F2DC30C2F200006946FEF7F4FE03
:102E5000002818BFFDF7F2FA02B080BD80B540F23D
:102E6000244041F20001C2F20000C4F2010100233B
:102E70004FF00C0C4FF4E13280E80E00C0E9033350
:102E8000C0E905C3C361FFF7D1FB002808BF80BDBF
:102E9000BDE88040FDF7D2BA80B540F2684044F604
:102EA0000001C2F20000C4F2000148F2A062C0F2C8
:102EB0000102002380E80E0000F10C014FF4806C49
:102EC0004FF00C0E81E80850C0E90633FFF7AEFB67
:102ED000002808BF80BDBDE88040FDF7AFBA000004
:102EE000FEE70000FEE700007047000070470000AA
:102EF000FEF73ABAB0B592B0002443F640000A9407
:102F0000CDE908440594CDE90344CDE9014400949A
:102F1000C4F202000168022541F08051016000689E
:102F200000F080500090009847F200000094C4F236
:102F30000000016841F480410160006800F48040B5
:102F400000900098092006904FF4803007900120EF
:102F50000B904FF480000D9006200E90A820CDE934
:102F60000F050420119006A80C95FEF7C5FB28B1AB
:102F7000EFF3108072B600BFFEE700BF0F20CDE96F
:102F800001054FF4A05004904FF48050059001A823
:102F900005210394FEF7A2FA20B1EFF3108072B678
:102FA000FEE700BF12B0B0BD4EF68850CEF2000072
:102FB000016841F4700101607047000040F29430F4
:102FC000C2F20000FEF702BF40F2DC30C2F20000A5
:102FD000FEF7FCBE10B540F6FF3E0368C4F2000EDB
:102FE00040F2004C7045C4F2010C27DCB0F1804F78
:102FF00031D040F20042C4F2000290422BD040F6A1
:103000000002C4F20002904225D041F6FF72C4F2E1
:103010000002904229DC70453CDCB0F1804F5FD06B
:1030200040F20042C4F20002904259D040F6000241
:10303000C4F20002904253D056E000BF40F6004276
:10304000C4F20002904206D0604504D00022C4F2CF
:1030500001029042D9D14A6823F07003134341F62C
:10306000FF72C4F200029042D5DD43F6FF72C4F253
:103070000102904222DC42F20002C4F200029042BD
:103080002ED00022C4F20102904229D0604527D000
:103090002AE000BF40F60042C4F2000290421FD076
:1030A00041F60002C4F20002904219D041F60042FB
:1030B000C4F20002904213D016E000BF44F20002B6
:1030C000C4F2010290420BD044F60002C4F20102A5
:1030D000904205D044F20042C4F20102904203D172
:1030E000CA6823F44073134323F080024B69D1F87C
:1030F00000E08C681A430260C46240F48062C0F849
:1031000028E0624504BF096901630121416110BDE6
:10311000806B0021C185C184FEF7D4BF81B090F8D7
:103120003E10222921D183680246B3F5805F09D180
:1031300052F8281F52F8183C002B63D003685B68D4
:103140000AE000BF52F8281F13B90369002BF5D01D
:1031500003685B6803F07F030B7011680131116035
:10316000C18D01390A04C18502D001B0704700BF8A
:103170000168CA6822F02002CA60CA6822F480721C
:10318000CA604A6922F001024A61202180F83E109B
:10319000016B01293ED10021016300BF016851E8A4
:1031A000031F026821F0100142E80313DBB101683C
:1031B00051E8031F026821F0100142E8031393B1A4
:1031C000016851E8031F026821F0100142E803136F
:1031D0004BB1016851E8031F026821F0100142E879
:1031E0000313002BDAD101680A68D20606D5002243
:1031F00000920A680092496800910099818D01B09F
:10320000FEF75EBF026852686FF35F2221F8022B5F
:103210008162A5E701B0FFF739BB000010B5044695
:103220000068D4E902C22369016921F440511143C5
:103230000161626943EA0C01E3691143C268194301
:1032400049F20C639A431143C1604169A26921F4B8
:10325000407141F20043114340F48062C4F2010323
:103260009A42416102D1FEF7FDF901E0FEF7E6F96D
:10327000E16963681922B1F5004FA0FB020123D177
:103280005A00DB0FFCF7F0FF48F21F51C5F2EB11BB
:10329000A0FB01235A094FF69C73C0F6FF7303F19C
:1032A000805302FB0300322303EBC000A0FB0101AB
:1032B0004FF4F87000EA111000EB0210C1F3421154
:1032C00008442168886010BD9A009B0FFCF7CCFF72
:1032D00048F21F51C5F2EB11A0FB01235A094FF62A
:1032E0009C73C0F6FF7302FB0300322303EB001054
:1032F000A0FB0101F02000EA511000EB0210C1F325
:10330000431108442168886010BD000040F2244049
:10331000C2F20000FEF7D8BE40F26840C2F20000E0
:10332000FEF7D2BEFEE70000FEF72CF8FFF7E2FD45
:10333000FFF7C4FBFFF796FBFFF71AFBFFF752FB03
:10334000FFF770FBFFF780FCFFF796FCFFF7BAFC76
:10335000FFF7E2FCFFF70AFDFFF730FDFFF756FD30
:10336000FFF77CFDFFF798FD40F2684040F27001E6
:10337000C2F20000C2F200011222FFF757FA40F237
:103380005820C2F20000FDF7E9FF00BFFEE7F1EEB2
:10339000100A4FF6FF71C0F2C03120EA010040F080
:1033A0004070E1EE100A70470000000000000000CD
:1033B00001020304060708090000000001020304DB
:1033C0000006101600061016E83300080000002062
:1033D00010000000C4010008F833000810000020AD
:1033E000A0340000E001000801000000100000000F
:0833F0000024F40000000000BD
:040000050800018965
:00000001FF
